{
  "contractName": "Age",
  "abi": [
    {
      "inputs": [],
      "stateMutability": "nonpayable",
      "type": "constructor"
    },
    {
      "inputs": [],
      "name": "_initialized",
      "outputs": [
        {
          "internalType": "bool",
          "name": "",
          "type": "bool"
        }
      ],
      "stateMutability": "view",
      "type": "function"
    },
    {
      "inputs": [],
      "name": "owner",
      "outputs": [
        {
          "internalType": "address",
          "name": "",
          "type": "address"
        }
      ],
      "stateMutability": "view",
      "type": "function"
    },
    {
      "inputs": [],
      "name": "getAge",
      "outputs": [
        {
          "internalType": "uint256",
          "name": "",
          "type": "uint256"
        }
      ],
      "stateMutability": "view",
      "type": "function"
    },
    {
      "inputs": [
        {
          "internalType": "uint256",
          "name": "_age",
          "type": "uint256"
        }
      ],
      "name": "setAge",
      "outputs": [],
      "stateMutability": "nonpayable",
      "type": "function"
    }
  ],
  "bytecode": "0x608060405234801561001057600080fd5b5033600560006101000a81548173ffffffffffffffffffffffffffffffffffffffff021916908373ffffffffffffffffffffffffffffffffffffffff1602179055506102f8806100616000396000f3fe608060405234801561001057600080fd5b506004361061004c5760003560e01c80633072cf60146100515780638da5cb5b1461006f578063967e6e651461008d578063d5dcf127146100ab575b600080fd5b6100596100c7565b6040516100669190610222565b60405180910390f35b6100776100da565b6040516100849190610207565b60405180910390f35b610095610100565b6040516100a2919061023d565b60405180910390f35b6100c560048036038101906100c0919061015c565b610123565b005b600560149054906101000a900460ff1681565b600560009054906101000a900473ffffffffffffffffffffffffffffffffffffffff1681565b60008060405161010f906101f2565b908152602001604051809103902054905090565b806000604051610132906101f2565b90815260200160405180910390208190555050565b600081359050610156816102ab565b92915050565b60006020828403121561016e57600080fd5b600061017c84828501610147565b91505092915050565b61018e81610263565b82525050565b61019d81610275565b82525050565b60006101b0600383610258565b91507f61676500000000000000000000000000000000000000000000000000000000006000830152600382019050919050565b6101ec816102a1565b82525050565b60006101fd826101a3565b9150819050919050565b600060208201905061021c6000830184610185565b92915050565b60006020820190506102376000830184610194565b92915050565b600060208201905061025260008301846101e3565b92915050565b600081905092915050565b600061026e82610281565b9050919050565b60008115159050919050565b600073ffffffffffffffffffffffffffffffffffffffff82169050919050565b6000819050919050565b6102b4816102a1565b81146102bf57600080fd5b5056fea264697066735822122025856bde338d67123e5ca45203126c551245c605b7b0e4d88582babb6070b71b64736f6c63430008000033",
  "immutableReferences": {},
  "source": "// SPDX-License-Identifier: MIT\npragma solidity ^ 0.8.0;\npragma abicoder v2;\n\nimport \"./Storage.sol\";\n\ncontract Age is Storage {\n\n    constructor() {\n        owner = msg.sender;\n    }\n\n    modifier onlyOwner {\n        require(msg.sender == owner, \"you're not the contract owner\");\n        _;\n    }\n\n    function getAge() public view returns (uint) {\n       return _uintStorage[\"age\"];\n    }\n\n    function setAge(uint _age) public {\n        _uintStorage[\"age\"] = _age;\n    }\n}",
  "sourcePath": "/Users/giuseppe/Desktop/Ethereum/Proxy/contracts/Age.sol",
  "compiler": {
    "name": "solc",
    "version": "0.8.0+commit.c7dfd78e.Emscripten.clang"
  },
  "schemaVersion": "3.4.3",
  "updatedAt": "2022-04-14T20:46:07.377Z",
  "devdoc": {
    "kind": "dev",
    "methods": {},
    "version": 1
  },
  "userdoc": {
    "kind": "user",
    "methods": {},
    "version": 1
  }
}