{
  "contractName": "AgeUpdate",
  "abi": [
    {
      "inputs": [],
      "stateMutability": "nonpayable",
      "type": "constructor"
    },
    {
      "inputs": [],
      "name": "_initialized",
      "outputs": [
        {
          "internalType": "bool",
          "name": "",
          "type": "bool"
        }
      ],
      "stateMutability": "view",
      "type": "function",
      "constant": true
    },
    {
      "inputs": [],
      "name": "owner",
      "outputs": [
        {
          "internalType": "address",
          "name": "",
          "type": "address"
        }
      ],
      "stateMutability": "view",
      "type": "function",
      "constant": true
    },
    {
      "inputs": [],
      "name": "getAge",
      "outputs": [
        {
          "internalType": "uint256",
          "name": "",
          "type": "uint256"
        }
      ],
      "stateMutability": "view",
      "type": "function",
      "constant": true
    },
    {
      "inputs": [
        {
          "internalType": "uint256",
          "name": "_age",
          "type": "uint256"
        }
      ],
      "name": "setAge",
      "outputs": [],
      "stateMutability": "nonpayable",
      "type": "function"
    }
  ],
  "bytecode": "0x608060405234801561001057600080fd5b5033600560006101000a81548173ffffffffffffffffffffffffffffffffffffffff021916908373ffffffffffffffffffffffffffffffffffffffff1602179055506103f9806100616000396000f3fe608060405234801561001057600080fd5b506004361061004c5760003560e01c80633072cf60146100515780638da5cb5b1461006f578063967e6e651461008d578063d5dcf127146100ab575b600080fd5b6100596100c7565b60405161006691906102f2565b60405180910390f35b6100776100da565b60405161008491906102d7565b60405180910390f35b610095610100565b6040516100a2919061032d565b60405180910390f35b6100c560048036038101906100c091906101ec565b610123565b005b600560149054906101000a900460ff1681565b600560009054906101000a900473ffffffffffffffffffffffffffffffffffffffff1681565b60008060405161010f906102c2565b908152602001604051809103902054905090565b600560009054906101000a900473ffffffffffffffffffffffffffffffffffffffff1673ffffffffffffffffffffffffffffffffffffffff163373ffffffffffffffffffffffffffffffffffffffff16146101b3576040517f08c379a00000000000000000000000000000000000000000000000000000000081526004016101aa9061030d565b60405180910390fd5b8060006040516101c2906102c2565b90815260200160405180910390208190555050565b6000813590506101e6816103ac565b92915050565b6000602082840312156101fe57600080fd5b600061020c848285016101d7565b91505092915050565b61021e81610364565b82525050565b61022d81610376565b82525050565b6000610240600383610359565b91507f61676500000000000000000000000000000000000000000000000000000000006000830152600382019050919050565b6000610280601d83610348565b91507f796f75277265206e6f742074686520636f6e7472616374206f776e65720000006000830152602082019050919050565b6102bc816103a2565b82525050565b60006102cd82610233565b9150819050919050565b60006020820190506102ec6000830184610215565b92915050565b60006020820190506103076000830184610224565b92915050565b6000602082019050818103600083015261032681610273565b9050919050565b600060208201905061034260008301846102b3565b92915050565b600082825260208201905092915050565b600081905092915050565b600061036f82610382565b9050919050565b60008115159050919050565b600073ffffffffffffffffffffffffffffffffffffffff82169050919050565b6000819050919050565b6103b5816103a2565b81146103c057600080fd5b5056fea264697066735822122039697113f2951a6b1b695b11a90291256b9310b0fd9a1f0d2b90be6dbf5ff61264736f6c63430008000033",
  "immutableReferences": {},
  "source": "// SPDX-License-Identifier: MIT\npragma solidity ^ 0.8.0;\npragma abicoder v2;\n\nimport \"./Storage.sol\";\n\ncontract AgeUpdate is Storage {\n\n    constructor() {\n        owner = msg.sender;\n    }\n\n    modifier onlyOwner {\n        require(msg.sender == owner, \"you're not the contract owner\");\n        _;\n    }\n\n    function getAge() public view returns (uint) {\n       return _uintStorage[\"age\"];\n    }\n\n    function setAge(uint _age) public onlyOwner {\n        _uintStorage[\"age\"] = _age;\n    }\n}",
  "sourcePath": "/Users/giuseppe/Desktop/Ethereum/Proxy/contracts/AgeUpdate.sol",
  "compiler": {
    "name": "solc",
    "version": "0.8.0+commit.c7dfd78e.Emscripten.clang"
  },
  "schemaVersion": "3.4.3",
  "updatedAt": "2022-04-15T15:00:40.180Z",
  "networkType": "ethereum",
  "devdoc": {
    "kind": "dev",
    "methods": {},
    "version": 1
  },
  "userdoc": {
    "kind": "user",
    "methods": {},
    "version": 1
  }
}