{
  "contractName": "Proxy",
  "abi": [
    {
      "inputs": [
        {
          "internalType": "address",
          "name": "_currentAddress",
          "type": "address"
        }
      ],
      "stateMutability": "nonpayable",
      "type": "constructor"
    },
    {
      "stateMutability": "payable",
      "type": "fallback"
    },
    {
      "inputs": [],
      "name": "_initialized",
      "outputs": [
        {
          "internalType": "bool",
          "name": "",
          "type": "bool"
        }
      ],
      "stateMutability": "view",
      "type": "function"
    },
    {
      "inputs": [],
      "name": "currentAddress",
      "outputs": [
        {
          "internalType": "address",
          "name": "",
          "type": "address"
        }
      ],
      "stateMutability": "view",
      "type": "function"
    },
    {
      "inputs": [],
      "name": "owner",
      "outputs": [
        {
          "internalType": "address",
          "name": "",
          "type": "address"
        }
      ],
      "stateMutability": "view",
      "type": "function"
    },
    {
      "inputs": [
        {
          "internalType": "address",
          "name": "_newAddress",
          "type": "address"
        }
      ],
      "name": "upgrade",
      "outputs": [],
      "stateMutability": "nonpayable",
      "type": "function"
    }
  ],
  "bytecode": "0x608060405234801561001057600080fd5b506040516104a23803806104a28339818101604052810190610032919061008e565b80600660006101000a81548173ffffffffffffffffffffffffffffffffffffffff021916908373ffffffffffffffffffffffffffffffffffffffff16021790555050610100565b600081519050610088816100e9565b92915050565b6000602082840312156100a057600080fd5b60006100ae84828501610079565b91505092915050565b60006100c2826100c9565b9050919050565b600073ffffffffffffffffffffffffffffffffffffffff82169050919050565b6100f2816100b7565b81146100fd57600080fd5b50565b6103938061010f6000396000f3fe6080604052600436106100435760003560e01c80630900f010146101295780633072cf601461015257806381bf47181461017d5780638da5cb5b146101a857610044565b5b6000600660009054906101000a900473ffffffffffffffffffffffffffffffffffffffff169050600073ffffffffffffffffffffffffffffffffffffffff168173ffffffffffffffffffffffffffffffffffffffff1614156100a557600080fd5b600080368080601f016020809104026020016040519081016040528093929190818152602001838380828437600081840152601f19601f820116905080830192505050505050509050600080825160208401855af43d604051816000823e8260008114610119576001811461011d57610121565b8282fd5b8282f35b505050505050005b34801561013557600080fd5b50610150600480360381019061014b919061028b565b6101d3565b005b34801561015e57600080fd5b50610167610217565b60405161017491906102ed565b60405180910390f35b34801561018957600080fd5b5061019261022a565b60405161019f91906102d2565b60405180910390f35b3480156101b457600080fd5b506101bd610250565b6040516101ca91906102d2565b60405180910390f35b80600660006101000a81548173ffffffffffffffffffffffffffffffffffffffff021916908373ffffffffffffffffffffffffffffffffffffffff16021790555050565b600560149054906101000a900460ff1681565b600660009054906101000a900473ffffffffffffffffffffffffffffffffffffffff1681565b600560009054906101000a900473ffffffffffffffffffffffffffffffffffffffff1681565b60008135905061028581610346565b92915050565b60006020828403121561029d57600080fd5b60006102ab84828501610276565b91505092915050565b6102bd81610308565b82525050565b6102cc8161031a565b82525050565b60006020820190506102e760008301846102b4565b92915050565b600060208201905061030260008301846102c3565b92915050565b600061031382610326565b9050919050565b60008115159050919050565b600073ffffffffffffffffffffffffffffffffffffffff82169050919050565b61034f81610308565b811461035a57600080fd5b5056fea264697066735822122025878e2529672aac1c99b605c102921657ddb783e9174fe2432b926b3ebf5a9b64736f6c63430008000033",
  "immutableReferences": {},
  "source": "// SPDX-License-Identifier: MIT\npragma solidity ^ 0.8.0;\npragma abicoder v2;\n\nimport \"./Storage.sol\";\n\ncontract Proxy is Storage {\n\naddress public currentAddress;\n\nconstructor(address _currentAddress) {\n    currentAddress = _currentAddress;\n}\n\nfunction upgrade(address _newAddress) public {\n    currentAddress = _newAddress;\n}\n\nfallback() payable external {\n    address implementation = currentAddress;\n    require(implementation != address(0));\n    bytes memory data = msg.data;\n\n    assembly {\n        let result := delegatecall(gas(), implementation, add(data, 0x20), mload(data), 0, 0)\n        let size := returndatasize()\n        let ptr := mload(0x40)\n\n        returndatacopy(ptr, 0, size)\n        switch result\n        case 0 {revert(ptr, size)}\n        case 1 {return(ptr, size)}\n    }\n}\n\n}",
  "sourcePath": "/Users/giuseppe/Desktop/Ethereum/Proxy/contracts/Proxy.sol",
  "compiler": {
    "name": "solc",
    "version": "0.8.0+commit.c7dfd78e.Emscripten.clang"
  },
  "schemaVersion": "3.4.3",
  "updatedAt": "2022-04-14T21:16:48.661Z",
  "devdoc": {
    "kind": "dev",
    "methods": {},
    "version": 1
  },
  "userdoc": {
    "kind": "user",
    "methods": {},
    "version": 1
  }
}